{
  "_format": "hh-sol-artifact-1",
  "contractName": "NGO",
  "sourceName": "contracts/NGO.sol",
  "abi": [
    {
      "inputs": [
        {
          "internalType": "contract Token",
          "name": "_token",
          "type": "address"
        }
      ],
      "stateMutability": "nonpayable",
      "type": "constructor"
    },
    {
      "anonymous": false,
      "inputs": [
        {
          "indexed": true,
          "internalType": "address",
          "name": "owner",
          "type": "address"
        },
        {
          "indexed": true,
          "internalType": "address",
          "name": "approved",
          "type": "address"
        },
        {
          "indexed": true,
          "internalType": "uint256",
          "name": "tokenId",
          "type": "uint256"
        }
      ],
      "name": "Approval",
      "type": "event"
    },
    {
      "anonymous": false,
      "inputs": [
        {
          "indexed": true,
          "internalType": "address",
          "name": "owner",
          "type": "address"
        },
        {
          "indexed": true,
          "internalType": "address",
          "name": "operator",
          "type": "address"
        },
        {
          "indexed": false,
          "internalType": "bool",
          "name": "approved",
          "type": "bool"
        }
      ],
      "name": "ApprovalForAll",
      "type": "event"
    },
    {
      "anonymous": false,
      "inputs": [
        {
          "indexed": false,
          "internalType": "uint256",
          "name": "tokenId",
          "type": "uint256"
        },
        {
          "indexed": false,
          "internalType": "uint256",
          "name": "red",
          "type": "uint256"
        },
        {
          "indexed": false,
          "internalType": "uint256",
          "name": "green",
          "type": "uint256"
        },
        {
          "indexed": false,
          "internalType": "uint256",
          "name": "blue",
          "type": "uint256"
        }
      ],
      "name": "ChangeColor",
      "type": "event"
    },
    {
      "anonymous": false,
      "inputs": [
        {
          "indexed": false,
          "internalType": "uint256",
          "name": "ngoId",
          "type": "uint256"
        },
        {
          "indexed": false,
          "internalType": "uint256",
          "name": "amount",
          "type": "uint256"
        },
        {
          "indexed": false,
          "internalType": "uint256",
          "name": "donationNeeded",
          "type": "uint256"
        },
        {
          "indexed": false,
          "internalType": "uint256",
          "name": "date",
          "type": "uint256"
        },
        {
          "indexed": false,
          "internalType": "address",
          "name": "from",
          "type": "address"
        },
        {
          "indexed": false,
          "internalType": "address payable",
          "name": "owner",
          "type": "address"
        }
      ],
      "name": "DonationForNgo",
      "type": "event"
    },
    {
      "anonymous": false,
      "inputs": [
        {
          "indexed": false,
          "internalType": "uint256",
          "name": "ngoId",
          "type": "uint256"
        },
        {
          "indexed": false,
          "internalType": "string",
          "name": "name",
          "type": "string"
        },
        {
          "indexed": false,
          "internalType": "string",
          "name": "description",
          "type": "string"
        },
        {
          "indexed": false,
          "internalType": "string",
          "name": "location",
          "type": "string"
        },
        {
          "indexed": false,
          "internalType": "string",
          "name": "imageURL",
          "type": "string"
        },
        {
          "indexed": false,
          "internalType": "uint256",
          "name": "donationNeeded",
          "type": "uint256"
        },
        {
          "indexed": false,
          "internalType": "uint256",
          "name": "date",
          "type": "uint256"
        },
        {
          "indexed": false,
          "internalType": "address payable",
          "name": "owner",
          "type": "address"
        }
      ],
      "name": "NgoCreated",
      "type": "event"
    },
    {
      "anonymous": false,
      "inputs": [
        {
          "indexed": true,
          "internalType": "address",
          "name": "from",
          "type": "address"
        },
        {
          "indexed": true,
          "internalType": "address",
          "name": "to",
          "type": "address"
        },
        {
          "indexed": true,
          "internalType": "uint256",
          "name": "tokenId",
          "type": "uint256"
        }
      ],
      "name": "Transfer",
      "type": "event"
    },
    {
      "inputs": [],
      "name": "_nftId",
      "outputs": [
        {
          "internalType": "uint256",
          "name": "_value",
          "type": "uint256"
        }
      ],
      "stateMutability": "view",
      "type": "function"
    },
    {
      "inputs": [
        {
          "internalType": "address",
          "name": "to",
          "type": "address"
        },
        {
          "internalType": "uint256",
          "name": "tokenId",
          "type": "uint256"
        }
      ],
      "name": "approve",
      "outputs": [],
      "stateMutability": "nonpayable",
      "type": "function"
    },
    {
      "inputs": [
        {
          "internalType": "address",
          "name": "owner",
          "type": "address"
        }
      ],
      "name": "balanceOf",
      "outputs": [
        {
          "internalType": "uint256",
          "name": "",
          "type": "uint256"
        }
      ],
      "stateMutability": "view",
      "type": "function"
    },
    {
      "inputs": [
        {
          "internalType": "uint256",
          "name": "_tokenId",
          "type": "uint256"
        }
      ],
      "name": "changeColorOfNFT",
      "outputs": [],
      "stateMutability": "nonpayable",
      "type": "function"
    },
    {
      "inputs": [
        {
          "internalType": "string",
          "name": "_name",
          "type": "string"
        },
        {
          "internalType": "string",
          "name": "_description",
          "type": "string"
        },
        {
          "internalType": "string",
          "name": "_location",
          "type": "string"
        },
        {
          "internalType": "string",
          "name": "_imageURL",
          "type": "string"
        },
        {
          "internalType": "uint256",
          "name": "_donationNeeded",
          "type": "uint256"
        }
      ],
      "name": "createNgo",
      "outputs": [],
      "stateMutability": "nonpayable",
      "type": "function"
    },
    {
      "inputs": [
        {
          "internalType": "uint256",
          "name": "_ngoId",
          "type": "uint256"
        },
        {
          "internalType": "string",
          "name": "_tokenURI",
          "type": "string"
        }
      ],
      "name": "donateETHToNgo",
      "outputs": [],
      "stateMutability": "payable",
      "type": "function"
    },
    {
      "inputs": [
        {
          "internalType": "uint256",
          "name": "_ngoId",
          "type": "uint256"
        },
        {
          "internalType": "string",
          "name": "_tokenURI",
          "type": "string"
        },
        {
          "internalType": "address",
          "name": "_referrer",
          "type": "address"
        }
      ],
      "name": "donateETHToNgoWithReferrer",
      "outputs": [],
      "stateMutability": "payable",
      "type": "function"
    },
    {
      "inputs": [],
      "name": "fetchNfts",
      "outputs": [
        {
          "internalType": "uint256",
          "name": "",
          "type": "uint256"
        }
      ],
      "stateMutability": "view",
      "type": "function"
    },
    {
      "inputs": [
        {
          "internalType": "uint256",
          "name": "tokenId",
          "type": "uint256"
        }
      ],
      "name": "getApproved",
      "outputs": [
        {
          "internalType": "address",
          "name": "",
          "type": "address"
        }
      ],
      "stateMutability": "view",
      "type": "function"
    },
    {
      "inputs": [],
      "name": "getLatestPrice",
      "outputs": [
        {
          "internalType": "int256",
          "name": "",
          "type": "int256"
        }
      ],
      "stateMutability": "view",
      "type": "function"
    },
    {
      "inputs": [
        {
          "internalType": "address",
          "name": "owner",
          "type": "address"
        },
        {
          "internalType": "address",
          "name": "operator",
          "type": "address"
        }
      ],
      "name": "isApprovedForAll",
      "outputs": [
        {
          "internalType": "bool",
          "name": "",
          "type": "bool"
        }
      ],
      "stateMutability": "view",
      "type": "function"
    },
    {
      "inputs": [],
      "name": "name",
      "outputs": [
        {
          "internalType": "string",
          "name": "",
          "type": "string"
        }
      ],
      "stateMutability": "view",
      "type": "function"
    },
    {
      "inputs": [
        {
          "internalType": "uint256",
          "name": "",
          "type": "uint256"
        }
      ],
      "name": "nft",
      "outputs": [
        {
          "internalType": "uint256",
          "name": "tokenId",
          "type": "uint256"
        },
        {
          "internalType": "string",
          "name": "name",
          "type": "string"
        },
        {
          "internalType": "uint256",
          "name": "red",
          "type": "uint256"
        },
        {
          "internalType": "uint256",
          "name": "green",
          "type": "uint256"
        },
        {
          "internalType": "uint256",
          "name": "blue",
          "type": "uint256"
        },
        {
          "internalType": "uint256",
          "name": "amount",
          "type": "uint256"
        }
      ],
      "stateMutability": "view",
      "type": "function"
    },
    {
      "inputs": [],
      "name": "ngoCount",
      "outputs": [
        {
          "internalType": "uint256",
          "name": "",
          "type": "uint256"
        }
      ],
      "stateMutability": "view",
      "type": "function"
    },
    {
      "inputs": [
        {
          "internalType": "uint256",
          "name": "",
          "type": "uint256"
        }
      ],
      "name": "ngoList",
      "outputs": [
        {
          "internalType": "uint256",
          "name": "ngoId",
          "type": "uint256"
        },
        {
          "internalType": "string",
          "name": "name",
          "type": "string"
        },
        {
          "internalType": "string",
          "name": "description",
          "type": "string"
        },
        {
          "internalType": "string",
          "name": "location",
          "type": "string"
        },
        {
          "internalType": "string",
          "name": "imageURL",
          "type": "string"
        },
        {
          "internalType": "uint256",
          "name": "donationNeeded",
          "type": "uint256"
        },
        {
          "internalType": "uint256",
          "name": "date",
          "type": "uint256"
        },
        {
          "internalType": "address payable",
          "name": "owner",
          "type": "address"
        }
      ],
      "stateMutability": "view",
      "type": "function"
    },
    {
      "inputs": [
        {
          "internalType": "uint256",
          "name": "tokenId",
          "type": "uint256"
        }
      ],
      "name": "ownerOf",
      "outputs": [
        {
          "internalType": "address",
          "name": "",
          "type": "address"
        }
      ],
      "stateMutability": "view",
      "type": "function"
    },
    {
      "inputs": [
        {
          "internalType": "address",
          "name": "from",
          "type": "address"
        },
        {
          "internalType": "address",
          "name": "to",
          "type": "address"
        },
        {
          "internalType": "uint256",
          "name": "tokenId",
          "type": "uint256"
        }
      ],
      "name": "safeTransferFrom",
      "outputs": [],
      "stateMutability": "nonpayable",
      "type": "function"
    },
    {
      "inputs": [
        {
          "internalType": "address",
          "name": "from",
          "type": "address"
        },
        {
          "internalType": "address",
          "name": "to",
          "type": "address"
        },
        {
          "internalType": "uint256",
          "name": "tokenId",
          "type": "uint256"
        },
        {
          "internalType": "bytes",
          "name": "data",
          "type": "bytes"
        }
      ],
      "name": "safeTransferFrom",
      "outputs": [],
      "stateMutability": "nonpayable",
      "type": "function"
    },
    {
      "inputs": [
        {
          "internalType": "address",
          "name": "operator",
          "type": "address"
        },
        {
          "internalType": "bool",
          "name": "approved",
          "type": "bool"
        }
      ],
      "name": "setApprovalForAll",
      "outputs": [],
      "stateMutability": "nonpayable",
      "type": "function"
    },
    {
      "inputs": [
        {
          "internalType": "bytes4",
          "name": "interfaceId",
          "type": "bytes4"
        }
      ],
      "name": "supportsInterface",
      "outputs": [
        {
          "internalType": "bool",
          "name": "",
          "type": "bool"
        }
      ],
      "stateMutability": "view",
      "type": "function"
    },
    {
      "inputs": [],
      "name": "symbol",
      "outputs": [
        {
          "internalType": "string",
          "name": "",
          "type": "string"
        }
      ],
      "stateMutability": "view",
      "type": "function"
    },
    {
      "inputs": [
        {
          "internalType": "uint256",
          "name": "tokenId",
          "type": "uint256"
        }
      ],
      "name": "tokenURI",
      "outputs": [
        {
          "internalType": "string",
          "name": "",
          "type": "string"
        }
      ],
      "stateMutability": "view",
      "type": "function"
    },
    {
      "inputs": [
        {
          "internalType": "address",
          "name": "from",
          "type": "address"
        },
        {
          "internalType": "address",
          "name": "to",
          "type": "address"
        },
        {
          "internalType": "uint256",
          "name": "tokenId",
          "type": "uint256"
        }
      ],
      "name": "transferFrom",
      "outputs": [],
      "stateMutability": "nonpayable",
      "type": "function"
    }
  ],
  "bytecode": "0x608060405260006007553480156200001657600080fd5b5060405162004ed538038062004ed583398181016040528101906200003c9190620001e9565b6040518060400160405280600c81526020017f457468666f72416c6c4e465400000000000000000000000000000000000000008152506040518060400160405280600481526020017f454e4654000000000000000000000000000000000000000000000000000000008152508160009081620000b9919062000495565b508060019081620000cb919062000495565b50505080600b60006101000a81548173ffffffffffffffffffffffffffffffffffffffff021916908373ffffffffffffffffffffffffffffffffffffffff160217905550739326bfa02add2366b30bacb125260af641031331600a60006101000a81548173ffffffffffffffffffffffffffffffffffffffff021916908373ffffffffffffffffffffffffffffffffffffffff160217905550506200057c565b600080fd5b600073ffffffffffffffffffffffffffffffffffffffff82169050919050565b60006200019d8262000170565b9050919050565b6000620001b18262000190565b9050919050565b620001c381620001a4565b8114620001cf57600080fd5b50565b600081519050620001e381620001b8565b92915050565b6000602082840312156200020257620002016200016b565b5b60006200021284828501620001d2565b91505092915050565b600081519050919050565b7f4e487b7100000000000000000000000000000000000000000000000000000000600052604160045260246000fd5b7f4e487b7100000000000000000000000000000000000000000000000000000000600052602260045260246000fd5b600060028204905060018216806200029d57607f821691505b602082108103620002b357620002b262000255565b5b50919050565b60008190508160005260206000209050919050565b60006020601f8301049050919050565b600082821b905092915050565b6000600883026200031d7fffffffffffffffffffffffffffffffffffffffffffffffffffffffffffffffff82620002de565b620003298683620002de565b95508019841693508086168417925050509392505050565b6000819050919050565b6000819050919050565b600062000376620003706200036a8462000341565b6200034b565b62000341565b9050919050565b6000819050919050565b620003928362000355565b620003aa620003a1826200037d565b848454620002eb565b825550505050565b600090565b620003c1620003b2565b620003ce81848462000387565b505050565b5b81811015620003f657620003ea600082620003b7565b600181019050620003d4565b5050565b601f82111562000445576200040f81620002b9565b6200041a84620002ce565b810160208510156200042a578190505b620004426200043985620002ce565b830182620003d3565b50505b505050565b600082821c905092915050565b60006200046a600019846008026200044a565b1980831691505092915050565b600062000485838362000457565b9150826002028217905092915050565b620004a0826200021b565b67ffffffffffffffff811115620004bc57620004bb62000226565b5b620004c8825462000284565b620004d5828285620003fa565b600060209050601f8311600181146200050d5760008415620004f8578287015190505b62000504858262000477565b86555062000574565b601f1984166200051d86620002b9565b60005b82811015620005475784890151825560018201915060208501945060208101905062000520565b8683101562000567578489015162000563601f89168262000457565b8355505b6001600288020188555050505b505050505050565b614949806200058c6000396000f3fe6080604052600436106101405760003560e01c80636352211e116100b6578063a22cb4651161006f578063a22cb4651461047f578063b88d4fde146104a8578063c32bd3e2146104d1578063c87b56dd146104ed578063e022f6341461052a578063e985e9c51461055557610140565b80636352211e1461032957806370a08231146103665780638e15f473146103a357806395d89b41146103ce578063967f8982146103f95780639d0214cb1461043d57610140565b80630de8246f116101085780630de8246f1461023c57806320de9a631461026557806323b872dd146102905780633b9e1cc9146102b95780633efbf91c146102d557806342842e0e1461030057610140565b806301ffc9a71461014557806306fdde031461018257806307a1f22e146101ad578063081812fc146101d6578063095ea7b314610213575b600080fd5b34801561015157600080fd5b5061016c6004803603810190610167919061306d565b610592565b60405161017991906130b5565b60405180910390f35b34801561018e57600080fd5b50610197610674565b6040516101a49190613160565b60405180910390f35b3480156101b957600080fd5b506101d460048036038101906101cf91906131b8565b610706565b005b3480156101e257600080fd5b506101fd60048036038101906101f891906131b8565b610a0e565b60405161020a9190613226565b60405180910390f35b34801561021f57600080fd5b5061023a6004803603810190610235919061326d565b610a54565b005b34801561024857600080fd5b50610263600480360381019061025e91906133e2565b610b6b565b005b34801561027157600080fd5b5061027a610d2f565b60405161028791906134dc565b60405180910390f35b34801561029c57600080fd5b506102b760048036038101906102b291906134f7565b610d45565b005b6102d360048036038101906102ce919061354a565b610da5565b005b3480156102e157600080fd5b506102ea6113ad565b6040516102f791906134dc565b60405180910390f35b34801561030c57600080fd5b50610327600480360381019061032291906134f7565b6113b9565b005b34801561033557600080fd5b50610350600480360381019061034b91906131b8565b6113d9565b60405161035d9190613226565b60405180910390f35b34801561037257600080fd5b5061038d600480360381019061038891906135a6565b61148a565b60405161039a91906134dc565b60405180910390f35b3480156103af57600080fd5b506103b8611541565b6040516103c591906135ec565b60405180910390f35b3480156103da57600080fd5b506103e36115f0565b6040516103f09190613160565b60405180910390f35b34801561040557600080fd5b50610420600480360381019061041b91906131b8565b611682565b604051610434989796959493929190613628565b60405180910390f35b34801561044957600080fd5b50610464600480360381019061045f91906131b8565b61190a565b604051610476969594939291906136c2565b60405180910390f35b34801561048b57600080fd5b506104a660048036038101906104a19190613756565b6119ce565b005b3480156104b457600080fd5b506104cf60048036038101906104ca9190613837565b6119e4565b005b6104eb60048036038101906104e691906138ba565b611a46565b005b3480156104f957600080fd5b50610514600480360381019061050f91906131b8565b6120f8565b6040516105219190613160565b60405180910390f35b34801561053657600080fd5b5061053f61220a565b60405161054c91906134dc565b60405180910390f35b34801561056157600080fd5b5061057c60048036038101906105779190613929565b612210565b60405161058991906130b5565b60405180910390f35b60007f80ac58cd000000000000000000000000000000000000000000000000000000007bffffffffffffffffffffffffffffffffffffffffffffffffffffffff1916827bffffffffffffffffffffffffffffffffffffffffffffffffffffffff1916148061065d57507f5b5e139f000000000000000000000000000000000000000000000000000000007bffffffffffffffffffffffffffffffffffffffffffffffffffffffff1916827bffffffffffffffffffffffffffffffffffffffffffffffffffffffff1916145b8061066d575061066c826122a4565b5b9050919050565b60606000805461068390613998565b80601f01602080910402602001604051908101604052809291908181526020018280546106af90613998565b80156106fc5780601f106106d1576101008083540402835291602001916106fc565b820191906000526020600020905b8154815290600101906020018083116106df57829003601f168201915b5050505050905090565b6000600b60009054906101000a900473ffffffffffffffffffffffffffffffffffffffff1673ffffffffffffffffffffffffffffffffffffffff166370a08231336040518263ffffffff1660e01b81526004016107639190613226565b602060405180830381865afa158015610780573d6000803e3d6000fd5b505050506040513d601f19601f820116820180604052508101906107a491906139de565b116107ae57600080fd5b6000600960008381526020019081526020016000206040518060c0016040529081600082015481526020016001820180546107e890613998565b80601f016020809104026020016040519081016040528092919081815260200182805461081490613998565b80156108615780601f1061083657610100808354040283529160200191610861565b820191906000526020600020905b81548152906001019060200180831161084457829003601f168201915b50505050508152602001600282015481526020016003820154815260200160048201548152602001600582015481525050905060006108a060fd61230e565b905060006108ae60fe61230e565b905060006108bc60ff61230e565b9050828460400181815250508184606001818152505080846080018181525050836009600087815260200190815260200160002060008201518160000155602082015181600101908161090f9190613bb7565b5060408201518160020155606082015181600301556080820151816004015560a08201518160050155905050600b60009054906101000a900473ffffffffffffffffffffffffffffffffffffffff1673ffffffffffffffffffffffffffffffffffffffff16630ca56cff33306040518363ffffffff1660e01b8152600401610998929190613c89565b600060405180830381600087803b1580156109b257600080fd5b505af11580156109c6573d6000803e3d6000fd5b505050507fd82989dd2db417da4c182297c8499fd6bd9b44c60095c3b499797c24fab60a2c858484846040516109ff9493929190613cb2565b60405180910390a15050505050565b6000610a1982612350565b6004600083815260200190815260200160002060009054906101000a900473ffffffffffffffffffffffffffffffffffffffff169050919050565b6000610a5f826113d9565b90508073ffffffffffffffffffffffffffffffffffffffff168373ffffffffffffffffffffffffffffffffffffffff1603610acf576040517f08c379a0000000000000000000000000000000000000000000000000000000008152600401610ac690613d69565b60405180910390fd5b8073ffffffffffffffffffffffffffffffffffffffff16610aee61239b565b73ffffffffffffffffffffffffffffffffffffffff161480610b1d5750610b1c81610b1761239b565b612210565b5b610b5c576040517f08c379a0000000000000000000000000000000000000000000000000000000008152600401610b5390613dfb565b60405180910390fd5b610b6683836123a3565b505050565b60008111610b7857600080fd5b6000855111610b8657600080fd5b6000845111610b9457600080fd5b6000835111610ba257600080fd5b60076000815480929190610bb590613e4a565b919050555060405180610100016040528060075481526020018681526020018581526020018481526020018381526020018281526020014281526020013373ffffffffffffffffffffffffffffffffffffffff16815250600860006007548152602001908152602001600020600082015181600001556020820151816001019081610c409190613bb7565b506040820151816002019081610c569190613bb7565b506060820151816003019081610c6c9190613bb7565b506080820151816004019081610c829190613bb7565b5060a0820151816005015560c0820151816006015560e08201518160070160006101000a81548173ffffffffffffffffffffffffffffffffffffffff021916908373ffffffffffffffffffffffffffffffffffffffff1602179055509050507f46bf07c6c9bd0c9ea27bc2e9eb62fd933502afcd47b6740d3b00719398aec94860075486868686864233604051610d20989796959493929190613628565b60405180910390a15050505050565b600080610d3c600c61245c565b90508091505090565b610d56610d5061239b565b8261246a565b610d95576040517f08c379a0000000000000000000000000000000000000000000000000000000008152600401610d8c90613f04565b60405180910390fd5b610da08383836124ff565b505050565b6000600860008481526020019081526020016000206040518061010001604052908160008201548152602001600182018054610de090613998565b80601f0160208091040260200160405190810160405280929190818152602001828054610e0c90613998565b8015610e595780601f10610e2e57610100808354040283529160200191610e59565b820191906000526020600020905b815481529060010190602001808311610e3c57829003601f168201915b50505050508152602001600282018054610e7290613998565b80601f0160208091040260200160405190810160405280929190818152602001828054610e9e90613998565b8015610eeb5780601f10610ec057610100808354040283529160200191610eeb565b820191906000526020600020905b815481529060010190602001808311610ece57829003601f168201915b50505050508152602001600382018054610f0490613998565b80601f0160208091040260200160405190810160405280929190818152602001828054610f3090613998565b8015610f7d5780601f10610f5257610100808354040283529160200191610f7d565b820191906000526020600020905b815481529060010190602001808311610f6057829003601f168201915b50505050508152602001600482018054610f9690613998565b80601f0160208091040260200160405190810160405280929190818152602001828054610fc290613998565b801561100f5780601f10610fe45761010080835404028352916020019161100f565b820191906000526020600020905b815481529060010190602001808311610ff257829003601f168201915b5050505050815260200160058201548152602001600682015481526020016007820160009054906101000a900473ffffffffffffffffffffffffffffffffffffffff1673ffffffffffffffffffffffffffffffffffffffff1673ffffffffffffffffffffffffffffffffffffffff16815250509050348160a00151101561109557600080fd5b8060e0015173ffffffffffffffffffffffffffffffffffffffff166108fc349081150290604051600060405180830381858888f193505050501580156110df573d6000803e3d6000fd5b50348160a0018181516110f29190613f24565b91508181525050806008600085815260200190815260200160002060008201518160000155602082015181600101908161112c9190613bb7565b5060408201518160020190816111429190613bb7565b5060608201518160030190816111589190613bb7565b50608082015181600401908161116e9190613bb7565b5060a0820151816005015560c0820151816006015560e08201518160070160006101000a81548173ffffffffffffffffffffffffffffffffffffffff021916908373ffffffffffffffffffffffffffffffffffffffff1602179055509050506111d7600c612765565b60006111e3600c61245c565b90506111ef338261277b565b6111f98184612799565b600061120560fd61230e565b9050600061121360fe61230e565b9050600061122160ff61230e565b90506040518060c001604052808581526020018660200151815260200184815260200183815260200182815260200134815250600960008681526020019081526020016000206000820151816000015560208201518160010190816112869190613bb7565b5060408201518160020155606082015181600301556080820151816004015560a08201518160050155905050600b60009054906101000a900473ffffffffffffffffffffffffffffffffffffffff1673ffffffffffffffffffffffffffffffffffffffff1663a9059cbb336729a2241af62c00006040518363ffffffff1660e01b8152600401611317929190613f93565b6020604051808303816000875af1158015611336573d6000803e3d6000fd5b505050506040513d601f19601f8201168201806040525081019061135a9190613fd1565b507f10057e68b00f7ea3d799d533499a89435af9b0f31af507327d1ffd3e9459704787348760a0015142338a60e0015160405161139c96959493929190613ffe565b60405180910390a150505050505050565b600c8060000154905081565b6113d4838383604051806020016040528060008152506119e4565b505050565b6000806002600084815260200190815260200160002060009054906101000a900473ffffffffffffffffffffffffffffffffffffffff169050600073ffffffffffffffffffffffffffffffffffffffff168173ffffffffffffffffffffffffffffffffffffffff1603611481576040517f08c379a0000000000000000000000000000000000000000000000000000000008152600401611478906140ab565b60405180910390fd5b80915050919050565b60008073ffffffffffffffffffffffffffffffffffffffff168273ffffffffffffffffffffffffffffffffffffffff16036114fa576040517f08c379a00000000000000000000000000000000000000000000000000000000081526004016114f19061413d565b60405180910390fd5b600360008373ffffffffffffffffffffffffffffffffffffffff1673ffffffffffffffffffffffffffffffffffffffff168152602001908152602001600020549050919050565b600080600080600080600a60009054906101000a900473ffffffffffffffffffffffffffffffffffffffff1673ffffffffffffffffffffffffffffffffffffffff1663feaf968c6040518163ffffffff1660e01b815260040160a060405180830381865afa1580156115b7573d6000803e3d6000fd5b505050506040513d601f19601f820116820180604052508101906115db91906141cb565b94509450945094509450839550505050505090565b6060600180546115ff90613998565b80601f016020809104026020016040519081016040528092919081815260200182805461162b90613998565b80156116785780601f1061164d57610100808354040283529160200191611678565b820191906000526020600020905b81548152906001019060200180831161165b57829003601f168201915b5050505050905090565b60086020528060005260406000206000915090508060000154908060010180546116ab90613998565b80601f01602080910402602001604051908101604052809291908181526020018280546116d790613998565b80156117245780601f106116f957610100808354040283529160200191611724565b820191906000526020600020905b81548152906001019060200180831161170757829003601f168201915b50505050509080600201805461173990613998565b80601f016020809104026020016040519081016040528092919081815260200182805461176590613998565b80156117b25780601f10611787576101008083540402835291602001916117b2565b820191906000526020600020905b81548152906001019060200180831161179557829003601f168201915b5050505050908060030180546117c790613998565b80601f01602080910402602001604051908101604052809291908181526020018280546117f390613998565b80156118405780601f1061181557610100808354040283529160200191611840565b820191906000526020600020905b81548152906001019060200180831161182357829003601f168201915b50505050509080600401805461185590613998565b80601f016020809104026020016040519081016040528092919081815260200182805461188190613998565b80156118ce5780601f106118a3576101008083540402835291602001916118ce565b820191906000526020600020905b8154815290600101906020018083116118b157829003601f168201915b5050505050908060050154908060060154908060070160009054906101000a900473ffffffffffffffffffffffffffffffffffffffff16905088565b600960205280600052604060002060009150905080600001549080600101805461193390613998565b80601f016020809104026020016040519081016040528092919081815260200182805461195f90613998565b80156119ac5780601f10611981576101008083540402835291602001916119ac565b820191906000526020600020905b81548152906001019060200180831161198f57829003601f168201915b5050505050908060020154908060030154908060040154908060050154905086565b6119e06119d961239b565b8383612806565b5050565b6119f56119ef61239b565b8361246a565b611a34576040517f08c379a0000000000000000000000000000000000000000000000000000000008152600401611a2b90613f04565b60405180910390fd5b611a4084848484612972565b50505050565b6000600860008581526020019081526020016000206040518061010001604052908160008201548152602001600182018054611a8190613998565b80601f0160208091040260200160405190810160405280929190818152602001828054611aad90613998565b8015611afa5780601f10611acf57610100808354040283529160200191611afa565b820191906000526020600020905b815481529060010190602001808311611add57829003601f168201915b50505050508152602001600282018054611b1390613998565b80601f0160208091040260200160405190810160405280929190818152602001828054611b3f90613998565b8015611b8c5780601f10611b6157610100808354040283529160200191611b8c565b820191906000526020600020905b815481529060010190602001808311611b6f57829003601f168201915b50505050508152602001600382018054611ba590613998565b80601f0160208091040260200160405190810160405280929190818152602001828054611bd190613998565b8015611c1e5780601f10611bf357610100808354040283529160200191611c1e565b820191906000526020600020905b815481529060010190602001808311611c0157829003601f168201915b50505050508152602001600482018054611c3790613998565b80601f0160208091040260200160405190810160405280929190818152602001828054611c6390613998565b8015611cb05780601f10611c8557610100808354040283529160200191611cb0565b820191906000526020600020905b815481529060010190602001808311611c9357829003601f168201915b5050505050815260200160058201548152602001600682015481526020016007820160009054906101000a900473ffffffffffffffffffffffffffffffffffffffff1673ffffffffffffffffffffffffffffffffffffffff1673ffffffffffffffffffffffffffffffffffffffff16815250509050348160a001511015611d3657600080fd5b8060e0015173ffffffffffffffffffffffffffffffffffffffff166108fc349081150290604051600060405180830381858888f19350505050158015611d80573d6000803e3d6000fd5b50348160a001818151611d939190613f24565b915081815250508060086000868152602001908152602001600020600082015181600001556020820151816001019081611dcd9190613bb7565b506040820151816002019081611de39190613bb7565b506060820151816003019081611df99190613bb7565b506080820151816004019081611e0f9190613bb7565b5060a0820151816005015560c0820151816006015560e08201518160070160006101000a81548173ffffffffffffffffffffffffffffffffffffffff021916908373ffffffffffffffffffffffffffffffffffffffff160217905550905050611e78600c612765565b6000611e84600c61245c565b9050611e90338261277b565b611e9a8185612799565b6000611ea660fd61230e565b90506000611eb460fe61230e565b90506000611ec260ff61230e565b90506040518060c00160405280858152602001866020015181526020018481526020018381526020018281526020013481525060096000868152602001908152602001600020600082015181600001556020820151816001019081611f279190613bb7565b5060408201518160020155606082015181600301556080820151816004015560a08201518160050155905050600b60009054906101000a900473ffffffffffffffffffffffffffffffffffffffff1673ffffffffffffffffffffffffffffffffffffffff1663a9059cbb336729a2241af62c00006040518363ffffffff1660e01b8152600401611fb8929190613f93565b6020604051808303816000875af1158015611fd7573d6000803e3d6000fd5b505050506040513d601f19601f82011682018060405250810190611ffb9190613fd1565b50600b60009054906101000a900473ffffffffffffffffffffffffffffffffffffffff1673ffffffffffffffffffffffffffffffffffffffff1663a9059cbb87670de0b6b3a76400006040518363ffffffff1660e01b8152600401612061929190614281565b6020604051808303816000875af1158015612080573d6000803e3d6000fd5b505050506040513d601f19601f820116820180604052508101906120a49190613fd1565b507f10057e68b00f7ea3d799d533499a89435af9b0f31af507327d1ffd3e9459704788348760a0015142338a60e001516040516120e696959493929190613ffe565b60405180910390a15050505050505050565b606061210382612350565b600060066000848152602001908152602001600020805461212390613998565b80601f016020809104026020016040519081016040528092919081815260200182805461214f90613998565b801561219c5780601f106121715761010080835404028352916020019161219c565b820191906000526020600020905b81548152906001019060200180831161217f57829003601f168201915b5050505050905060006121ad6129ce565b905060008151036121c2578192505050612205565b6000825111156121f75780826040516020016121df9291906142e6565b60405160208183030381529060405292505050612205565b612200846129e5565b925050505b919050565b60075481565b6000600560008473ffffffffffffffffffffffffffffffffffffffff1673ffffffffffffffffffffffffffffffffffffffff16815260200190815260200160002060008373ffffffffffffffffffffffffffffffffffffffff1673ffffffffffffffffffffffffffffffffffffffff16815260200190815260200160002060009054906101000a900460ff16905092915050565b60007f01ffc9a7000000000000000000000000000000000000000000000000000000007bffffffffffffffffffffffffffffffffffffffffffffffffffffffff1916827bffffffffffffffffffffffffffffffffffffffffffffffffffffffff1916149050919050565b60008142443360405160200161232693929190614373565b6040516020818303038152906040528051906020012060001c61234991906143df565b9050919050565b61235981612a4d565b612398576040517f08c379a000000000000000000000000000000000000000000000000000000000815260040161238f906140ab565b60405180910390fd5b50565b600033905090565b816004600083815260200190815260200160002060006101000a81548173ffffffffffffffffffffffffffffffffffffffff021916908373ffffffffffffffffffffffffffffffffffffffff160217905550808273ffffffffffffffffffffffffffffffffffffffff16612416836113d9565b73ffffffffffffffffffffffffffffffffffffffff167f8c5be1e5ebec7d5bd14f71427d1e84f3dd0314c0f7b2291e5b200ac8c7c3b92560405160405180910390a45050565b600081600001549050919050565b600080612476836113d9565b90508073ffffffffffffffffffffffffffffffffffffffff168473ffffffffffffffffffffffffffffffffffffffff1614806124b857506124b78185612210565b5b806124f657508373ffffffffffffffffffffffffffffffffffffffff166124de84610a0e565b73ffffffffffffffffffffffffffffffffffffffff16145b91505092915050565b8273ffffffffffffffffffffffffffffffffffffffff1661251f826113d9565b73ffffffffffffffffffffffffffffffffffffffff1614612575576040517f08c379a000000000000000000000000000000000000000000000000000000000815260040161256c90614482565b60405180910390fd5b600073ffffffffffffffffffffffffffffffffffffffff168273ffffffffffffffffffffffffffffffffffffffff16036125e4576040517f08c379a00000000000000000000000000000000000000000000000000000000081526004016125db90614514565b60405180910390fd5b6125ef838383612ab9565b6125fa6000826123a3565b6001600360008573ffffffffffffffffffffffffffffffffffffffff1673ffffffffffffffffffffffffffffffffffffffff168152602001908152602001600020600082825461264a9190613f24565b925050819055506001600360008473ffffffffffffffffffffffffffffffffffffffff1673ffffffffffffffffffffffffffffffffffffffff16815260200190815260200160002060008282546126a19190614534565b92505081905550816002600083815260200190815260200160002060006101000a81548173ffffffffffffffffffffffffffffffffffffffff021916908373ffffffffffffffffffffffffffffffffffffffff160217905550808273ffffffffffffffffffffffffffffffffffffffff168473ffffffffffffffffffffffffffffffffffffffff167fddf252ad1be2c89b69c2b068fc378daa952ba7f163c4a11628f55a4df523b3ef60405160405180910390a4612760838383612abe565b505050565b6001816000016000828254019250508190555050565b612795828260405180602001604052806000815250612ac3565b5050565b6127a282612a4d565b6127e1576040517f08c379a00000000000000000000000000000000000000000000000000000000081526004016127d8906145da565b60405180910390fd5b806006600084815260200190815260200160002090816128019190613bb7565b505050565b8173ffffffffffffffffffffffffffffffffffffffff168373ffffffffffffffffffffffffffffffffffffffff1603612874576040517f08c379a000000000000000000000000000000000000000000000000000000000815260040161286b90614646565b60405180910390fd5b80600560008573ffffffffffffffffffffffffffffffffffffffff1673ffffffffffffffffffffffffffffffffffffffff16815260200190815260200160002060008473ffffffffffffffffffffffffffffffffffffffff1673ffffffffffffffffffffffffffffffffffffffff16815260200190815260200160002060006101000a81548160ff0219169083151502179055508173ffffffffffffffffffffffffffffffffffffffff168373ffffffffffffffffffffffffffffffffffffffff167f17307eab39ab6107e8899845ad3d59bd9653f200f220920489ca2b5937696c318360405161296591906130b5565b60405180910390a3505050565b61297d8484846124ff565b61298984848484612b1e565b6129c8576040517f08c379a00000000000000000000000000000000000000000000000000000000081526004016129bf906146d8565b60405180910390fd5b50505050565b606060405180602001604052806000815250905090565b60606129f082612350565b60006129fa6129ce565b90506000815111612a1a5760405180602001604052806000815250612a45565b80612a2484612ca5565b604051602001612a359291906142e6565b6040516020818303038152906040525b915050919050565b60008073ffffffffffffffffffffffffffffffffffffffff166002600084815260200190815260200160002060009054906101000a900473ffffffffffffffffffffffffffffffffffffffff1673ffffffffffffffffffffffffffffffffffffffff1614159050919050565b505050565b505050565b612acd8383612e05565b612ada6000848484612b1e565b612b19576040517f08c379a0000000000000000000000000000000000000000000000000000000008152600401612b10906146d8565b60405180910390fd5b505050565b6000612b3f8473ffffffffffffffffffffffffffffffffffffffff16612fde565b15612c98578373ffffffffffffffffffffffffffffffffffffffff1663150b7a02612b6861239b565b8786866040518563ffffffff1660e01b8152600401612b8a949392919061474d565b6020604051808303816000875af1925050508015612bc657506040513d601f19601f82011682018060405250810190612bc391906147ae565b60015b612c48573d8060008114612bf6576040519150601f19603f3d011682016040523d82523d6000602084013e612bfb565b606091505b506000815103612c40576040517f08c379a0000000000000000000000000000000000000000000000000000000008152600401612c37906146d8565b60405180910390fd5b805181602001fd5b63150b7a0260e01b7bffffffffffffffffffffffffffffffffffffffffffffffffffffffff1916817bffffffffffffffffffffffffffffffffffffffffffffffffffffffff191614915050612c9d565b600190505b949350505050565b606060008203612cec576040518060400160405280600181526020017f30000000000000000000000000000000000000000000000000000000000000008152509050612e00565b600082905060005b60008214612d1e578080612d0790613e4a565b915050600a82612d1791906147db565b9150612cf4565b60008167ffffffffffffffff811115612d3a57612d396132b7565b5b6040519080825280601f01601f191660200182016040528015612d6c5781602001600182028036833780820191505090505b5090505b60008514612df957600182612d859190613f24565b9150600a85612d9491906143df565b6030612da09190614534565b60f81b818381518110612db657612db561480c565b5b60200101907effffffffffffffffffffffffffffffffffffffffffffffffffffffffffffff1916908160001a905350600a85612df291906147db565b9450612d70565b8093505050505b919050565b600073ffffffffffffffffffffffffffffffffffffffff168273ffffffffffffffffffffffffffffffffffffffff1603612e74576040517f08c379a0000000000000000000000000000000000000000000000000000000008152600401612e6b90614887565b60405180910390fd5b612e7d81612a4d565b15612ebd576040517f08c379a0000000000000000000000000000000000000000000000000000000008152600401612eb4906148f3565b60405180910390fd5b612ec960008383612ab9565b6001600360008473ffffffffffffffffffffffffffffffffffffffff1673ffffffffffffffffffffffffffffffffffffffff1681526020019081526020016000206000828254612f199190614534565b92505081905550816002600083815260200190815260200160002060006101000a81548173ffffffffffffffffffffffffffffffffffffffff021916908373ffffffffffffffffffffffffffffffffffffffff160217905550808273ffffffffffffffffffffffffffffffffffffffff16600073ffffffffffffffffffffffffffffffffffffffff167fddf252ad1be2c89b69c2b068fc378daa952ba7f163c4a11628f55a4df523b3ef60405160405180910390a4612fda60008383612abe565b5050565b6000808273ffffffffffffffffffffffffffffffffffffffff163b119050919050565b6000604051905090565b600080fd5b600080fd5b60007fffffffff0000000000000000000000000000000000000000000000000000000082169050919050565b61304a81613015565b811461305557600080fd5b50565b60008135905061306781613041565b92915050565b6000602082840312156130835761308261300b565b5b600061309184828501613058565b91505092915050565b60008115159050919050565b6130af8161309a565b82525050565b60006020820190506130ca60008301846130a6565b92915050565b600081519050919050565b600082825260208201905092915050565b60005b8381101561310a5780820151818401526020810190506130ef565b60008484015250505050565b6000601f19601f8301169050919050565b6000613132826130d0565b61313c81856130db565b935061314c8185602086016130ec565b61315581613116565b840191505092915050565b6000602082019050818103600083015261317a8184613127565b905092915050565b6000819050919050565b61319581613182565b81146131a057600080fd5b50565b6000813590506131b28161318c565b92915050565b6000602082840312156131ce576131cd61300b565b5b60006131dc848285016131a3565b91505092915050565b600073ffffffffffffffffffffffffffffffffffffffff82169050919050565b6000613210826131e5565b9050919050565b61322081613205565b82525050565b600060208201905061323b6000830184613217565b92915050565b61324a81613205565b811461325557600080fd5b50565b60008135905061326781613241565b92915050565b600080604083850312156132845761328361300b565b5b600061329285828601613258565b92505060206132a3858286016131a3565b9150509250929050565b600080fd5b600080fd5b7f4e487b7100000000000000000000000000000000000000000000000000000000600052604160045260246000fd5b6132ef82613116565b810181811067ffffffffffffffff8211171561330e5761330d6132b7565b5b80604052505050565b6000613321613001565b905061332d82826132e6565b919050565b600067ffffffffffffffff82111561334d5761334c6132b7565b5b61335682613116565b9050602081019050919050565b82818337600083830152505050565b600061338561338084613332565b613317565b9050828152602081018484840111156133a1576133a06132b2565b5b6133ac848285613363565b509392505050565b600082601f8301126133c9576133c86132ad565b5b81356133d9848260208601613372565b91505092915050565b600080600080600060a086880312156133fe576133fd61300b565b5b600086013567ffffffffffffffff81111561341c5761341b613010565b5b613428888289016133b4565b955050602086013567ffffffffffffffff81111561344957613448613010565b5b613455888289016133b4565b945050604086013567ffffffffffffffff81111561347657613475613010565b5b613482888289016133b4565b935050606086013567ffffffffffffffff8111156134a3576134a2613010565b5b6134af888289016133b4565b92505060806134c0888289016131a3565b9150509295509295909350565b6134d681613182565b82525050565b60006020820190506134f160008301846134cd565b92915050565b6000806000606084860312156135105761350f61300b565b5b600061351e86828701613258565b935050602061352f86828701613258565b9250506040613540868287016131a3565b9150509250925092565b600080604083850312156135615761356061300b565b5b600061356f858286016131a3565b925050602083013567ffffffffffffffff8111156135905761358f613010565b5b61359c858286016133b4565b9150509250929050565b6000602082840312156135bc576135bb61300b565b5b60006135ca84828501613258565b91505092915050565b6000819050919050565b6135e6816135d3565b82525050565b600060208201905061360160008301846135dd565b92915050565b6000613612826131e5565b9050919050565b61362281613607565b82525050565b60006101008201905061363e600083018b6134cd565b8181036020830152613650818a613127565b905081810360408301526136648189613127565b905081810360608301526136788188613127565b9050818103608083015261368c8187613127565b905061369b60a08301866134cd565b6136a860c08301856134cd565b6136b560e0830184613619565b9998505050505050505050565b600060c0820190506136d760008301896134cd565b81810360208301526136e98188613127565b90506136f860408301876134cd565b61370560608301866134cd565b61371260808301856134cd565b61371f60a08301846134cd565b979650505050505050565b6137338161309a565b811461373e57600080fd5b50565b6000813590506137508161372a565b92915050565b6000806040838503121561376d5761376c61300b565b5b600061377b85828601613258565b925050602061378c85828601613741565b9150509250929050565b600067ffffffffffffffff8211156137b1576137b06132b7565b5b6137ba82613116565b9050602081019050919050565b60006137da6137d584613796565b613317565b9050828152602081018484840111156137f6576137f56132b2565b5b613801848285613363565b509392505050565b600082601f83011261381e5761381d6132ad565b5b813561382e8482602086016137c7565b91505092915050565b600080600080608085870312156138515761385061300b565b5b600061385f87828801613258565b945050602061387087828801613258565b9350506040613881878288016131a3565b925050606085013567ffffffffffffffff8111156138a2576138a1613010565b5b6138ae87828801613809565b91505092959194509250565b6000806000606084860312156138d3576138d261300b565b5b60006138e1868287016131a3565b935050602084013567ffffffffffffffff81111561390257613901613010565b5b61390e868287016133b4565b925050604061391f86828701613258565b9150509250925092565b600080604083850312156139405761393f61300b565b5b600061394e85828601613258565b925050602061395f85828601613258565b9150509250929050565b7f4e487b7100000000000000000000000000000000000000000000000000000000600052602260045260246000fd5b600060028204905060018216806139b057607f821691505b6020821081036139c3576139c2613969565b5b50919050565b6000815190506139d88161318c565b92915050565b6000602082840312156139f4576139f361300b565b5b6000613a02848285016139c9565b91505092915050565b60008190508160005260206000209050919050565b60006020601f8301049050919050565b600082821b905092915050565b600060088302613a6d7fffffffffffffffffffffffffffffffffffffffffffffffffffffffffffffffff82613a30565b613a778683613a30565b95508019841693508086168417925050509392505050565b6000819050919050565b6000613ab4613aaf613aaa84613182565b613a8f565b613182565b9050919050565b6000819050919050565b613ace83613a99565b613ae2613ada82613abb565b848454613a3d565b825550505050565b600090565b613af7613aea565b613b02818484613ac5565b505050565b5b81811015613b2657613b1b600082613aef565b600181019050613b08565b5050565b601f821115613b6b57613b3c81613a0b565b613b4584613a20565b81016020851015613b54578190505b613b68613b6085613a20565b830182613b07565b50505b505050565b600082821c905092915050565b6000613b8e60001984600802613b70565b1980831691505092915050565b6000613ba78383613b7d565b9150826002028217905092915050565b613bc0826130d0565b67ffffffffffffffff811115613bd957613bd86132b7565b5b613be38254613998565b613bee828285613b2a565b600060209050601f831160018114613c215760008415613c0f578287015190505b613c198582613b9b565b865550613c81565b601f198416613c2f86613a0b565b60005b82811015613c5757848901518255600182019150602085019450602081019050613c32565b86831015613c745784890151613c70601f891682613b7d565b8355505b6001600288020188555050505b505050505050565b6000604082019050613c9e6000830185613217565b613cab6020830184613217565b9392505050565b6000608082019050613cc760008301876134cd565b613cd460208301866134cd565b613ce160408301856134cd565b613cee60608301846134cd565b95945050505050565b7f4552433732313a20617070726f76616c20746f2063757272656e74206f776e6560008201527f7200000000000000000000000000000000000000000000000000000000000000602082015250565b6000613d536021836130db565b9150613d5e82613cf7565b604082019050919050565b60006020820190508181036000830152613d8281613d46565b9050919050565b7f4552433732313a20617070726f76652063616c6c6572206973206e6f7420746f60008201527f6b656e206f776e6572206e6f7220617070726f76656420666f7220616c6c0000602082015250565b6000613de5603e836130db565b9150613df082613d89565b604082019050919050565b60006020820190508181036000830152613e1481613dd8565b9050919050565b7f4e487b7100000000000000000000000000000000000000000000000000000000600052601160045260246000fd5b6000613e5582613182565b91507fffffffffffffffffffffffffffffffffffffffffffffffffffffffffffffffff8203613e8757613e86613e1b565b5b600182019050919050565b7f4552433732313a2063616c6c6572206973206e6f7420746f6b656e206f776e6560008201527f72206e6f7220617070726f766564000000000000000000000000000000000000602082015250565b6000613eee602e836130db565b9150613ef982613e92565b604082019050919050565b60006020820190508181036000830152613f1d81613ee1565b9050919050565b6000613f2f82613182565b9150613f3a83613182565b9250828203905081811115613f5257613f51613e1b565b5b92915050565b6000819050919050565b6000613f7d613f78613f7384613f58565b613a8f565b613182565b9050919050565b613f8d81613f62565b82525050565b6000604082019050613fa86000830185613217565b613fb56020830184613f84565b9392505050565b600081519050613fcb8161372a565b92915050565b600060208284031215613fe757613fe661300b565b5b6000613ff584828501613fbc565b91505092915050565b600060c08201905061401360008301896134cd565b61402060208301886134cd565b61402d60408301876134cd565b61403a60608301866134cd565b6140476080830185613217565b61405460a0830184613619565b979650505050505050565b7f4552433732313a20696e76616c696420746f6b656e2049440000000000000000600082015250565b60006140956018836130db565b91506140a08261405f565b602082019050919050565b600060208201905081810360008301526140c481614088565b9050919050565b7f4552433732313a2061646472657373207a65726f206973206e6f74206120766160008201527f6c6964206f776e65720000000000000000000000000000000000000000000000602082015250565b60006141276029836130db565b9150614132826140cb565b604082019050919050565b600060208201905081810360008301526141568161411a565b9050919050565b600069ffffffffffffffffffff82169050919050565b61417c8161415d565b811461418757600080fd5b50565b60008151905061419981614173565b92915050565b6141a8816135d3565b81146141b357600080fd5b50565b6000815190506141c58161419f565b92915050565b600080600080600060a086880312156141e7576141e661300b565b5b60006141f58882890161418a565b9550506020614206888289016141b6565b9450506040614217888289016139c9565b9350506060614228888289016139c9565b92505060806142398882890161418a565b9150509295509295909350565b6000819050919050565b600061426b61426661426184614246565b613a8f565b613182565b9050919050565b61427b81614250565b82525050565b60006040820190506142966000830185613217565b6142a36020830184614272565b9392505050565b600081905092915050565b60006142c0826130d0565b6142ca81856142aa565b93506142da8185602086016130ec565b80840191505092915050565b60006142f282856142b5565b91506142fe82846142b5565b91508190509392505050565b6000819050919050565b61432561432082613182565b61430a565b82525050565b60008160601b9050919050565b60006143438261432b565b9050919050565b600061435582614338565b9050919050565b61436d61436882613205565b61434a565b82525050565b600061437f8286614314565b60208201915061438f8285614314565b60208201915061439f828461435c565b601482019150819050949350505050565b7f4e487b7100000000000000000000000000000000000000000000000000000000600052601260045260246000fd5b60006143ea82613182565b91506143f583613182565b925082614405576144046143b0565b5b828206905092915050565b7f4552433732313a207472616e736665722066726f6d20696e636f72726563742060008201527f6f776e6572000000000000000000000000000000000000000000000000000000602082015250565b600061446c6025836130db565b915061447782614410565b604082019050919050565b6000602082019050818103600083015261449b8161445f565b9050919050565b7f4552433732313a207472616e7366657220746f20746865207a65726f2061646460008201527f7265737300000000000000000000000000000000000000000000000000000000602082015250565b60006144fe6024836130db565b9150614509826144a2565b604082019050919050565b6000602082019050818103600083015261452d816144f1565b9050919050565b600061453f82613182565b915061454a83613182565b925082820190508082111561456257614561613e1b565b5b92915050565b7f45524337323155524953746f726167653a2055524920736574206f66206e6f6e60008201527f6578697374656e7420746f6b656e000000000000000000000000000000000000602082015250565b60006145c4602e836130db565b91506145cf82614568565b604082019050919050565b600060208201905081810360008301526145f3816145b7565b9050919050565b7f4552433732313a20617070726f766520746f2063616c6c657200000000000000600082015250565b60006146306019836130db565b915061463b826145fa565b602082019050919050565b6000602082019050818103600083015261465f81614623565b9050919050565b7f4552433732313a207472616e7366657220746f206e6f6e20455243373231526560008201527f63656976657220696d706c656d656e7465720000000000000000000000000000602082015250565b60006146c26032836130db565b91506146cd82614666565b604082019050919050565b600060208201905081810360008301526146f1816146b5565b9050919050565b600081519050919050565b600082825260208201905092915050565b600061471f826146f8565b6147298185614703565b93506147398185602086016130ec565b61474281613116565b840191505092915050565b60006080820190506147626000830187613217565b61476f6020830186613217565b61477c60408301856134cd565b818103606083015261478e8184614714565b905095945050505050565b6000815190506147a881613041565b92915050565b6000602082840312156147c4576147c361300b565b5b60006147d284828501614799565b91505092915050565b60006147e682613182565b91506147f183613182565b925082614801576148006143b0565b5b828204905092915050565b7f4e487b7100000000000000000000000000000000000000000000000000000000600052603260045260246000fd5b7f4552433732313a206d696e7420746f20746865207a65726f2061646472657373600082015250565b60006148716020836130db565b915061487c8261483b565b602082019050919050565b600060208201905081810360008301526148a081614864565b9050919050565b7f4552433732313a20746f6b656e20616c7265616479206d696e74656400000000600082015250565b60006148dd601c836130db565b91506148e8826148a7565b602082019050919050565b6000602082019050818103600083015261490c816148d0565b905091905056fea2646970667358221220aeda43618157678f8e2dfd3e3beb8b1e755c9a861b2623f50452500fa365079264736f6c63430008110033",
  "linkReferences": {},
  "deployedLinkReferences": {}
}